:020000040800F2
:10000000E0060020CD010008871D0008211300082C
:10001000851D0008D3020008F11D00080000000043
:100020000000000000000000000000008B1D000820
:10003000D502000800000000891D00088D1D000881
:10004000E7010008E7010008E7010008E7010008F0
:10005000E7010008E7010008E7010008E7010008E0
:10006000E7010008E7010008E7010008E7010008D0
:10007000E7010008E7010008E7010008E7010008C0
:10008000E7010008E7010008E7010008E7010008B0
:10009000E7010008E7010008E7010008E7010008A0
:1000A000E7010008E7010008E7010008E701000890
:1000B000E7010008E7010008E7010008E701000880
:1000C000E70100083113000825130008E7010008C4
:1000D000E7010008E7010008E7010008E701000860
:1000E000E7010008E7010008E7010008E701000850
:1000F000E7010008E7010008E7010008E701000840
:10010000E7010008E7010008E7010008E70100082F
:10011000E7010008E7010008E7010008E70100081F
:10012000E7010008E7010008E7010008E70100080F
:1001300000F002F800F03AF80AA090E8000C8244BF
:100140008344AAF10107DA4501D100F02FF8AFF29C
:10015000090EBAE80F0013F0010F18BFFB1A43F0A5
:1001600001031847401D0000601D0000103A24BF25
:1001700078C878C1FAD8520724BF30C830C144BF0C
:1001800004680C607047000000230024002500264E
:10019000103A28BF78C1FBD8520728BF30C148BFEA
:1001A0000B6070471FB51FBD10B510BD00F058F8AB
:1001B0001146FFF7F7FF01F02DFE00F076F803B4CB
:1001C000FFF7F2FF03BC00F07DF80000094880470C
:1001D00009480047FEE7FEE7FEE7FEE7FEE7FEE729
:1001E000FEE7FEE7FEE7FEE704480549054A064B41
:1001F00070470000EF1D000831010008E0000020FA
:10020000E0060020E0020020E00200204FF00002A3
:1002100000B5134694469646203922BFA0E80C50FC
:10022000A0E80C50B1F12001BFF4F7AF090728BFD7
:10023000A0E80C5048BF0CC05DF804EB890028BF53
:1002400040F8042B08BF704748BF20F8022B11F07C
:10025000804F18BF00F8012B7047704770477047F8
:10026000754600F02BF8AE4605006946534620F06F
:100270000700854618B020B5FFF7B6FFBDE820405F
:100280004FF000064FF000074FF000084FF0000B52
:1002900021F00701AC46ACE8C009ACE8C009ACE805
:1002A000C009ACE8C0098D46704710B50446AFF3ED
:1002B00000802046BDE81040FFF781BF004870472E
:1002C0007C00002001491820ABBEFEE7260002009A
:1002D0007047FEE7704700002DE9F05F90F82110AD
:1002E0000024022903D004218163012485E00168F0
:1002F0000A6822F00E020A6001680A6822F0010210
:100300000A603F4E3E4FB215DFF8F4C0DFF8F090C0
:10031000DFF8ECA0DFF8E8B0DFF8E4E00168783F50
:1003200013011502ACF1640CA9F15009AAF13C0AC1
:10033000ABF1280BAEF1140E4FF48018B14227D95F
:10034000B9420ED0614512D049451DD0514518D053
:10035000594518D0714501D1424615E0294EB142A8
:1003600001D1012210E0274E1436B14201D11022F2
:100370000AE0244E2836B14206D0224A3C3291424D
:1003800001D11A4600E02A461E49091F0A602BE0E7
:10039000B94213D0614517D0494522D051451DD0EF
:1003A00059451DD0714501D142461AE0B14202D1F2
:1003B0004FF0807215E0134EB14201D1012210E0DE
:1003C000104E1436B14201D110220AE00D4E2836EB
:1003D000B14206D00B4A3C32914201D11A4600E0AC
:1003E0002A46074980394A60012180F821100021FE
:1003F00080F82010416B01B188472046BDE8F09F8E
:10040000800002400804024090F82100704700007C
:100410002DE9F84FDFF8C8910024A9F1040B234619
:100420000F2709F1040AABF1040ED1E00125A54024
:1004300006EA0502AA4276D1DFF8A8C14E68A6EB0B
:100440000C0866452BD00DDC032E34D005DC36B30A
:10045000012E19D0022E2FD11BE0112E16D0122EF4
:100460002AD119E0B8F5881F19D006DCB8F5803F0D
:1004700015D0B8F5801F1FD111E0B8F5001F0ED0C0
:10048000B8F5041F18D10AE0CB6815E0CB681B1D36
:1004900012E0CB6808330FE0CB680C330CE08B68BC
:1004A0002BB1012B4FF0080303D0456104E0042376
:1004B00002E0056100E00023FF2A01D8064601E0C2
:1004C00000F104064FEA840501D9A5F12005D6F80C
:1004D000008007FA05FC28EA0C0803FA05F548EA4B
:1004E0000508C6F800804D68ED0070D53E4DAE6938
:1004F00046F00106AE61AD6924F0030605F0010582
:1005000000953A4D06EB050CDCF80850A607360FAF
:1005100007FA06F825EA0805DFF8D480404503D13C
:100520004FF0000825E052E0DFF8C880404502D1D6
:100530004FF001081DE0DFF8C080404502D14FF0C8
:10054000020816E0DFF8B480404502D14FF00308FE
:100550000FE0DFF8AC80404502D14FF0040808E01E
:10056000DFF8A080404502D14FF0050801E04FF0D0
:10057000060808FA06F848EA0508CCF808804D682D
:10058000D9F80060ED024D4601D5164300E09643D0
:100590002E604D68DAF80060AD02554601D516436D
:1005A00000E096432E604D68DBF80060AD035D46C9
:1005B00001D5164300E096432E604D68DEF80060DA
:1005C000ED03754601D5164300E096432E60641C8A
:1005D0000A681646E2407FF429AFBDE8F88F0000B4
:1005E000080401400000111000100240000001400A
:1005F00000080140000C01400010014000140140BF
:1006000000180140001C01400AB101617047090453
:10061000FBE7000001488068704700000C000020E4
:10062000704700000A4600230C480D49012A02D0F9
:100630004AB172B6FEE703700B70012308481A46F0
:10064000543800F0F1BA437004480978801C014422
:10065000012303481A46543800F020BB0000002054
:10066000700000202DE9F041016804464A694E6897
:1006700090F83E000025D743FA050BD4F243D2058B
:1006800008D46FF4807201254A6121680A6842F437
:1006900000420A60B90508D4F143C90505D42268AF
:1006A0006FF4007145F002055161790525D4F143DD
:1006B000C90522D4638D94F83D10226B202808D1FF
:1006C0003BB9212910D029290ED0282901D1212A6E
:1006D0000AD022686FF48061516145F0040510284A
:1006E00006D0402804D008E0204601F01FFA04E0BC
:1006F0002068016841F400710160380508D4F043B6
:10070000C00505D421686FF4006045F00805486114
:10071000002D07D0206C284320642046BDE8F0411E
:1007200000F072BEBDE8F0812DE9F04702680021BB
:100730005368C66A90F83E4090F83D50102C12D095
:10074000402C10D0046C002C7DD05469E443A607E3
:100750007AD4DE43B60577D4036C03B19169BDE862
:10076000F04701F0BFB9976951694FF42A0CC943AA
:100770005FEAC1784FF02A4904D066452AD04E4539
:1007800028D010E0DE43B6050DD4C16A614501D121
:10079000012103E0C16A494501D10821C162BDE8D8
:1007A000F04701F005B90E0716D4DE43B60513D4A1
:1007B000416CC9B21161416B09B1896A29B9816B78
:1007C000002907D0896A002904D00068416841F4F3
:1007D00000614160BDE8F0878E0706D4DE43B605B0
:1007E00003D4BDE8F04701F037B8FE4352687607FE
:1007F0004FEA02521DD4002AECDB0A0608D4DA4381
:10080000520505D4490705D5BDE8F04700F0C8BF3B
:100810004907DFD4D9438905DCD4212D05D0402CEC
:10082000D8D1BDE8F04701F009B9BDE8F04700F0C4
:1008300075BF002ACEDB4A060BD4DA43520508D432
:10084000490708D501E00DE00EE0BDE8F04700F0F3
:10085000F1BE4907BED4D9438905BBD4BDE8F047F2
:1008600000F07EBE916970E7E10606D4D9438905A0
:1008700003D4BDE8F04701F0A1B92821212D27D0EC
:10088000292D25D0650655D4DD436D0552D4640766
:1008900052D590F83D30448D002C9BD01269446AAB
:1008A0002270426A521C4262428D521E4285428D23
:1008B000002A8FD12A2B8DD10268536823F48063DC
:1008C00053602222026380F83D1000F073F981E743
:1008D000250623D4DD436D0520D4640720D590F888
:1008E0003D30448D002CF2D0446A24781461426A71
:1008F000521C4262428D521E4285428D002AE6D130
:10090000292BE4D10268536823F4806353602122C9
:10091000026380F83D1000F073F95BE76107D6D4FD
:10092000D9438905D3D4418D0029D0D0416A0978B3
:1009300011610AE06107CAD4D9438905C7D4418D42
:100940000029C4D01169426A1170416A491C416290
:10095000418D491E41853DE790F83D10202901D089
:1009600002207047282180F83D1001680A68D207EC
:1009700003D10A6842F001020A6001680A6842F481
:1009800080620A600068416841F440714160002063
:10099000704700000148FFF7DFBF00001C00002087
:1009A00070B5040025D094F83D00002520B984F8E6
:1009B0003C50204600F0BEF8242084F83D0020681A
:1009C000016821F0010101602068016841F40041E3
:1009D00001602068016821F40041016000F0C6FA5E
:1009E0004D4A6168914201D84C4900E04C49884227
:1009F00001D2012070BD4B492368B0FBF1F15E6864
:100A000026F03F060E435E606368934206D94FF4BA
:100A1000967359434FF47A73B1FBF3F12368491C81
:100A20001E6A26F03F06314319626168914210D870
:100A30004900401EB0FBF1F2521CC2F30B02042A23
:100A400001D2042022E0B0FBF1F0401CC0F30B0007
:100A50001CE0A268F2B301EBC10303EB0116431ED5
:100A6000B3FBF6F35B1C43F480431B0549D092B300
:100A700001EBC10202EB0111401EB0FBF1F0401C82
:100A8000C0F30B0040F4804040F400402168CA6984
:100A90004CF6FF739A431043C861D4E90710014331
:100AA0002068026822F0C00211430160D4E903010A
:100AB00001432068826848F2FF339A431143816002
:100AC000D4E9050108432168CA6822F0FF021043F7
:100AD000C86001E00EE016E02068016841F0010105
:100AE00001602564202084F83D00256384F83E5091
:100AF000002070BD01EB4106431EB3FBF6F35B1C07
:100B0000B3E70120C2E701EB4101401EB0FBF1F069
:100B1000401CC0F30B00B7E7A086010080841E00D4
:100B200000093D0040420F00704770477047704712
:100B30007047000010B586B000210091019102912C
:100B400003910068184988422BD1184CA06940F0E5
:100B50000800A061A069694600F0080004904FF405
:100B60004060009012200190032003901048FFF78E
:100B70004FFCE06940F48000E061E069002200F48D
:100B8000800004901146212000F028F9212000F077
:100B900017F900221146222000F020F9222000F04F
:100BA0000FF906B010BD00000058004000100240D0
:100BB000000C01400F4A10B51178491CC9B21170E0
:100BC0000A2916D209290CD00B4A04231144012208
:100BD00000F02AF80122BDE8104002210748FFF783
:100BE00013BD054920230931BDE81040012200F062
:100BF0001BB810BD0000002070000020000C014058
:100C0000074A074B5178491CC9B25170054A9B1CD1
:100C10001944127804231144012200F03FB8000067
:100C2000000000207000002038B590F83D502824C6
:100C3000AC4331D161B15AB190F83C40012C2BD07A
:100C4000012480F83C4004682568ED0702D005E0E7
:100C5000012038BD256845F0010525600468256838
:100C600025F4006525602A2480F83D40202480F882
:100C70003E400024046441624285418D0185C36287
:100C800001684A698A69009280F83C40486840F4EB
:100C9000E0604860204638BD022038BD38B590F885
:100CA0003D502824AC4331D161B15AB190F83C4059
:100CB000012C2BD0012480F83C4004682568ED0706
:100CC00002D005E0012038BD256845F0010525600A
:100CD0000468256825F400652560292480F83D40D6
:100CE000202480F83E400024046441624285418D06
:100CF0000185C36201684A698A69009280F83C40B4
:100D0000486840F4E0604860204638BD022038BDA5
:100D10000248816802781144816070470C0000200D
:100D2000074810B5016841F010010160032000F090
:100D300075F80F2000F006F800F024F8002010BD30
:100D40000020024070B50D4D04464FF47A712878AA
:100D5000B1FBF0F00A490968B1FBF0F000F0CCFA01
:100D600048B9102C07D200222146501E00F036F858
:100D700000206C6070BD012070BD00000C000020E0
:100D8000180000200C4808B5816941F0010181611B
:100D9000816901F001010091C16941F08051C16197
:100DA000C06900F0805000900448416821F0E06183
:100DB00041F00071416008BD001002400000014098
:100DC000002809DB00F01F0201219140400980004A
:100DD00000F1E020C0F8001170470000F0B40E4BA5
:100DE0001B680C46C3F30223C3F10705042D00D989
:100DF0000425191D072901D2002300E0DB1E01266E
:100E000006FA05F1491E214099409E40761E164083
:100E10003143F0BC00F0EDBF0CED00E0064900F0FE
:100E2000070208684FF6FF03184040EA0220034A11
:100E300010430860704700000CED00E00000FA0568
:100E40002DE9F0470F46050061D0434E306800F0B1
:100E50000700B84209D2306820F0070038433060FC
:100E6000306800F00700B84251D128683B4C810738
:100E700012D5400703D5606840F4E06060602878D0
:100E8000000703D5606840F4605060606068A9683E
:100E900020F0F000084360602878C00728D0686818
:100EA000012810D02168022810D0890700292EDAE5
:100EB000616821F0030101436160FFF7ABFB8046ED
:100EC00041F288390DE021688903EFE78901EDE7F8
:100ED000FFF7A0FBA0EB0801494502D90320BDE8BC
:100EE000F0876068696800F00C00B0EB810FEFD10B
:100EF000306800F00700B8420BD9306820F00700D6
:100F000038433060306800F00700B84201D001205B
:100F1000E5E72878400705D56068E96820F4E060D7
:100F2000084360602878000706D56068296920F4C6
:100F3000605040EAC100606000F028F86168084A2B
:100F4000C1F30311515CC8400649086006480068B7
:100F5000FFF7F8FE0020C2E7002002400010024028
:100F60008A1E0008180000201000002004480549CF
:100F700000684968044AC1F30221515CC8407047C7
:100F800018000020001002409A1E00080E4A516806
:100F90000E4801F00C03042B11D0082B0FD10C4884
:100FA000C1F38343C903C05C0AD55168084AC1F341
:100FB0004041921E515C054A5043B0FBF1F070472E
:100FC00004494843704700000010024000127A00B4
:100FD0007A1E000800093D002DE9F84F040070D08A
:100FE0002078C04DC00749D06868C0F3810001284F
:100FF00007D06868C0F38100022809D16868C0037F
:1010000006D52868800339D560680028E7D035E028
:101010006068B0F5803F0BD010B1B0F5A02F11D0B3
:10102000286820F480302860286820F4802002E0BE
:10103000286840F480302860606890B1FFF7EAFAD1
:1010400006460AE0286840F480202860F0E700BFE8
:10105000FFF7E0FA801B642873D828688003F7D56F
:101060000CE0FFF7D7FA064605E000BFFFF7D2FA1B
:10107000801B6428F0D828688003F7D420789A4E23
:1010800080074FF001094FF0000839D5686810F06B
:101090000C0F07D06868C0F38100022809D1686886
:1010A000C00306D42868800714D52069012808D118
:1010B00010E02069B0B1C6F80090FFF7ABFA074620
:1010C00005E00AE1FFF7A6FAC01B0228C4D8286889
:1010D0008007F7D52868616920F0F80040EAC10070
:1010E00028600DE0C6F80080FFF794FA074604E098
:1010F000FFF790FAC01B022823D828688007F7D48E
:10110000207800072CD57948A169D9B1C0F80090A2
:10111000FFF780FA074604E0FFF77CFAC01B0228BD
:101120000FD8686A8007F7D571484FF4FA51006804
:10113000B0FBF1F0009000BF0098411E0091FAD280
:101140000EE080E0C0F80080FFF764FA074604E094
:10115000FFF760FAC01B022875D8686A8007F7D4C9
:101160002078400760D5E8690027C00008D4E86906
:1011700040F08050E861E869012700F0805000905D
:101180005C480168C90513D40168834641F4807145
:101190000160FFF73FFA824606E000BFFFF73AFA28
:1011A000A0EB0A0064284ED8DBF80000C005F5D596
:1011B000E06801280AD008B1052813D0286A20F079
:1011C00001002862286A20F0040002E0286A40F04A
:1011D00001002862E06841F2883B98B1FFF71AFAF3
:1011E00082460BE0286A40F004002862EEE700BF68
:1011F000FFF710FAA0EB0A0159455AD8286A800770
:10120000F6D50CE0FFF706FA824605E0FFF702FA92
:10121000A0EB0A0159454CD8286A8007F6D41FB1C3
:10122000E86920F08050E861E06988B36968C1F33B
:101230008101022944D00228C6F8608004D0FFF75B
:10124000E9F9044638E034E0FFF7E4F9074604E042
:10125000FFF7E0F9C01B02282BD828688001F7D4DB
:10126000206AB0F5803F05D16868A16820F400309D
:1012700008436860D4E908010843696821F47411DF
:1012800008436860C6F86090FFF7C4F9044606E0BA
:1012900025E000BFFFF7BEF9001B022809D8286827
:1012A0008001F7D51BE000BFFFF7B4F9001B02284F
:1012B00002D90320BDE8F88F28688001F4D40EE03D
:1012C0000128F7D06868226A00F48031914204D185
:1012D000616A00F47010884201D00120EAE7002022
:1012E000E8E7000000100240000042428004424251
:1012F000180000200070004010B5401EB0F1807F43
:1013000001D3012010BD4FF0E02460610F21601770
:1013100000F06FFD0020A06107202061002010BDBB
:10132000FEE700000148FFF79DB900001C00002007
:101330000148FFF7F9B900001C00002038B5406AE9
:10134000002190F83D202B4B46F2A8141B68B3FBFC
:10135000F4F3C3EBC30303EB830300933BB15B1EC6
:10136000009303681B689B0505D5009BF6E7036C9B
:1013700043F020030364436B03B19962836B03B1B1
:10138000996203681C6824F480641C604185436B87
:1013900003B15963836B03B1596303681C6824F07C
:1013A00001041C6090F83D402023602C0BD02824C1
:1013B00034EA02020FD080F83D3080F83E1000BFC2
:1013C000FFF7E8FA38BD80F83D3080F83E10016440
:1013D000FFF726F938BD0268136843F00103136074
:1013E0000268136843F480631360016380F83D4032
:1013F000E6E700001800002000684169C9430906BB
:1014000001D400210161704770B5044690F83D0099
:1014100094F83E10102901D0402906D1222804D189
:1014200021680A6822F400620A60282131EA000279
:101430004FF000054FF0200626D0216849680905C5
:1014400005D4602803D084F83D6084F83E502563BD
:1014500020684168090537D5416821F40061416081
:10146000606B90F821203C49012A11D04163606BE8
:10147000FEF732FF38B32068016821F001010160F6
:1014800084F83D60606B1CE0256384F83D10DFE765
:10149000A06B4163A06BFEF71FFFA0B120684169FC
:1014A000C943490605D40069616A0870606A401C36
:1014B00060622068016821F00101016084F83D60EC
:1014C000A06B416B884710E094F83D10602910D064
:1014D0004169C943490605D40069616A0870606AB8
:1014E000401C60622046FFF755FA206CC1071CD1F2
:1014F00015E084F83D6025644169C943490605D477
:101500000069616A0870606A401C60622068016856
:1015100021F0010101602046FFF782F8E5E781072D
:1015200003D4410701D4000704D52068416821F4A1
:10153000E061416094F83D00216C49070BD52828F3
:1015400009D10648E062256384F83D6084F83E5086
:101550002046FFF7E9FA70BD3D1300080000FFFFC9
:1015600010B5C26A438D0168042B06D0438D032B4E
:1015700008D0438D022B1DD012E04A6822F480620D
:101580004A600CE04B6823F480634B60042A06D069
:10159000022A04D001680A6822F480620A600168A5
:1015A0000969426A1170416A491C4162418D491EB4
:1015B000418510BD012A30D0102A2ED0042A30D007
:1015C000022A2ED00A6842F400720A600168096992
:1015D000426A1170416A491C4162428D521E428525
:1015E000026812690A70416A491C4162418D491EB4
:1015F000418501684A6822F440724A60202180F8DF
:101600003D1090F83E200021402A80F83E100CD07A
:1016100012210163FFF789FA10BD0A6822F4806283
:10162000D3E70A6842F48062CFE70163FFF77FFAED
:1016300010BD000038B590F83D1022290FD1418D22
:1016400003290DD901680969426A1170416A491C70
:101650004162418D491E4185418D032906D038BD27
:10166000C26A022A02D0012906D029B10068416865
:1016700021F48061416038BD274946F2A813002259
:101680000968B1FBF3F101EB8101009101682023AE
:10169000009C641E009422D00C68A405F8D40C6849
:1016A00024F480640C6001684C6824F4E0644C60AD
:1016B00001680969446A2170416A491C4162418D8F
:1016C000491E418580F83D3090F83E1080F83E205C
:1016D00040291DD012210163FFF727FA38BD046CA1
:1016E00044F0200404644C6824F4E0644C60016815
:1016F0000969446A2170416A491C4162418D491E51
:10170000418580F83D3080F83E20FFF743F938BD31
:101710000263FFF70CFA38BD1800002010B5C26A4A
:1017200090F83D1021290BD1418D51B1416A0268D9
:1017300009781161416A491C4162418D491E418508
:1017400010BD20230021082A13D0202A11D012F521
:10175000803F0ED00268546824F4E0645460112283
:10176000026380F83E1080F83D3000BFFFF7DEF9DD
:1017700010BD0268546824F4E06454600268146880
:1017800044F400741460016380F83D3090F83E200A
:1017900080F83E10402AE9D1FFF7CAF910BD0000D9
:1017A00010B590F83D1090F83E30C26A048DB4B187
:1017B000212903D0402B11D122290FD1418DE1B332
:1017C00090F83E10402942D0416A026809781161C0
:1017D000416A491C4162418D491E418510BD212944
:1017E000E8D120230021082A13D0202A11D012F595
:1017F000803F0ED00268546824F4E06454601122E3
:10180000026380F83E1080F83D3000BFFFF78EF98C
:1018100010BD0268546824F4E064546002681468DF
:1018200044F400741460016380F83D3090F83E2069
:1018300080F83E10402AE9D100E002E0FFF778F995
:1018400010BD0068416821F48061416010BDBDE8B1
:10185000104000F0F3B8000078B590F83E50C26A2E
:10186000046B90F83D6000230168222E73D1066D51
:101870000EB9402D6FD0056D1DB90569B5F5404F06
:101880001BD0458D95B3468D484D012E20D0448DFB
:10189000022C4DD00C6844F480640C6001684C68E4
:1018A000240579D5AA4273D0012A71D0082A6FD0B5
:1018B000102A6DD0202A6BD06EE04A698A690092A6
:1018C0000A6842F480720A60016D491C016578BDA6
:1018D000AA4214D10A6822F480620A6001684A6848
:1018E000120504D50A6822F4806217E0FFE74A690E
:1018F0008A6900920A6842F400720A6050E0082A7D
:1019000010D0202A0ED0122C0AD0042A03D0022A8A
:1019100001D0102AE6D10A6842F480620A603BE0F6
:10192000012ADFD00A6822F480620A600168DEE7DB
:10193000042A11D0022A0FD0102A0DD00C6844F4CA
:1019400000640C6001684C698C6900940C6824F494
:1019500080640C6008E025E00C6844F480640C604E
:1019600001684C698969009101684C68240517D5A4
:10197000AA4207D0012A05D0082A03D0102A01D094
:10198000202A0DD14A6842F480524A6008E0FFE7FD
:101990004A6842F480524A6001684A698969009144
:1019A000036578BD48698869009078BD0000FFFF35
:1019B00090F83E10402910D00169B1F5804F19D040
:1019C000016DA9B3016D012910D1416C5FF0F102E5
:1019D00001F4407142EAD11106E0016D0029416C29
:1019E00005D0C9B241F0010100680161704701F002
:1019F000FE01F9E790F83D102129416C09D0C9B2E8
:101A000041F0010102681161416B29B1896A49B94C
:101A100002E001F0FE01F5E7816B0029E6D0896A5A
:101A20000029E3D00068416841F4006141607047DB
:101A3000FFE7416CF02201F44071CBE710B590F85C
:101A40003D10026D4AB1026D012A14D0026D022AC6
:101A500016D0BDE81040FFF7CFBCC16C0129816CE6
:101A600002D0C1F3072108E00268C9B21161016D1B
:101A7000891C016510BD816CC9B20268116123E047
:101A800022291CD0428D0AB1212920D0428D002A62
:101A9000F0D12129EED101684A6822F4E0624A605F
:101AA00001680A6842F400720A6000210163202282
:101AB00080F83D2080F83E10FFF73AF810BD01682D
:101AC0000A6842F480720A60016D491CD1E7416ADC
:101AD000026809781161416A491C4162418D491EC1
:101AE000418510BD38B50C4690F83D2000212825D1
:101AF000954302680B4605D051699169009180F8C1
:101B00003C3038BD556825F480655560E243540784
:101B100000D50121120601D5828900E0028B80F8F0
:101B20003C3092B2FEF77EFD38BD00002DE9F04159
:101B300090F83D300446C26A002120261E4F0068FE
:101B40006FF48065082A01D0202A01D1282B04D007
:101B5000212B17D04561BDE8F081E762426822F48D
:101B6000E0624260206845612068026822F4806279
:101B70000260216384F83D6084F83E102046FEF741
:101B8000D3FFE8E7E7622122226384F83D6084F80E
:101B90003E10416821F4E0614160206845612068A1
:101BA000016821F4806101602046FFF725FC204692
:101BB000FFF726F8CFE700000000FFFFF8B590F828
:101BC0003D6004460068416821F4E061416020689E
:101BD000002541690091016841F001010160206820
:101BE000016821F48061016020684168090520D501
:101BF000474F222E48D02A2E46D0616B096849688B
:101C00006185618D19B1216C41F004012164416845
:101C100021F400614160606BFEF7F6FB012808D0FB
:101C2000606B4763606BFEF757FB10B1606B416BF5
:101C30008847608D08B320684169C943490708D4C3
:101C40000069616A0870606A401C6062608D401EB5
:101C5000608520684169C943490608D40069616A02
:101C60000870606A401C6062608D401E6085608DF7
:101C700018B1206C40F004002064206C00B32046B2
:101C8000BDE8F840FFF7C0BBA16B096849686185F2
:101C9000618D19B1216C41F004012164416821F486
:101CA00000614160A06BFEF7AFFB0128C1D0A06BC3
:101CB0004763A06BFEF710FB0028BAD0A06BB6E715
:101CC0002A2E06D12563282084F83D002046FEF701
:101CD00071FF94F83D10202028290DD0216B222976
:101CE00001D0222E07D1256384F83D0084F83E50B0
:101CF0002046FEF75FFFF8BD0649E162256384F8E0
:101D00003D0084F83E502046FEF70EFFF8BD00006F
:101D10003D1300080000FFFF30B585B000241748D0
:101D20000094019402940394816941F0200181613F
:101D3000816901F020010491816941F0080181610C
:101D4000816901F008010491816941F00401816118
:101D500080690B4D00F00400049000220221284607
:101D6000FEF752FC02210120CDE90010CDE902412D
:101D700069462846FEF74CFB05B030BD0010024016
:101D8000000C0140FEE7FEE770477047FEF7C0BF5A
:101D900030B58FB028216846FEF738FA14210AA81A
:101DA000FEF734FA01210804CDE900100024029462
:101DB00002250491CDE907504FF4E01009906846E0
:101DC000FFF70AF908B172B6FEE70F20CDE90A0560
:101DD0004FF48060CDE90C4002210AA80E94FFF771
:101DE0002FF8002801D072B6FEE70FB030BD704763
:101DF000FEE70907090E002804DB00F1E02080F867
:101E00000014704700F00F0000F1E02080F8141D6E
:101E100070470000FEF784FFFFF7BAFFFFF77CFF73
:101E20001248114924220160114941600021C0E992
:101E300002124FF48042C0E904218161C161016254
:101E4000FEF7AEFD08B172B6FEE700220221094896
:101E5000FEF7DAFB0548FEF77FFD08B172B6FEE734
:101E60000248FEF779FDFBE7005800401C00002007
:101E7000A0860100000C01400102020304050607D0
:101E800008090A0B0C0D0E0F1010000000000000D6
:101E90000000010203040607080900000000010217
:101EA00003040000C41E0008000000201C00000005
:101EB0006C010008E01E00081C000020C4060000A1
:101EC0008801000800000102030405060708090A4A
:101ED0000100000010000000000000000024F400D9
:0400000508000131BD
:00000001FF
